:020000040800F2
:10000000704A00204501000811020008090200089A
:100010000D0200080102000879030008000000003A
:1000200000000000000000000000000019020008AD
:100030000502000800000000150200081D0200086B
:100040005F0100085F0100085F0100085F01000810
:100050005F0100085F0100085F0100085F01000800
:100060005F0100085F0100085F0100085F010008F0
:100070005F0100085F0100085F0100085F010008E0
:100080005F0100085F0100085F0100085F010008D0
:100090005F0100085F0100085F0100085F010008C0
:1000A0005F0100085F0100085F0100085F010008B0
:1000B0005F0100085F0100085F0100085F010008A0
:1000C0005F0100085F0100085F0100085F01000890
:1000D0005F01000869030008710300085F01000860
:1000E0005F0100085F0100085F0100085F01000870
:1000F0005F0100085F0100085F0100085F01000860
:100100005F0100085F0100085F0100085F0100084F
:100110005F0100085F0100085F0100085F0100083F
:100120005F0100085F0100085F0100085F0100082F
:10013000DFF80CD000F052F8004800472106000814
:10014000704A00200648804706480047FEE7FEE761
:10015000FEE7FEE7FEE7FEE7FEE7FEE7FEE7FEE777
:10016000210200083101000840EA01039B0703D087
:1001700009E008C9121F08C0042AFAD203E011F8E6
:10018000013B00F8013B521EF9D27047D2B201E0A8
:1001900000F8012B491EFBD270470022F6E710B58C
:1001A00013460A4604461946FFF7F0FF204610BDE5
:1001B00030B50B46014600202022012409E021FA37
:1001C00002F59D4205D303FA02F5491B04FA02F534
:1001D0002844151EA2F10102F1DC30BD064C074D8A
:1001E00006E0E06840F0010394E807009847103407
:1001F000AC42F6D3FFF7A0FF041300081413000865
:10020000FEE7000070470000FEE70000FEE7000088
:100210007047000070470000704700007047000002
:1002200081B04EF68851CEF200010A6841F2040016
:1002300042F47002C4F202000A6050F8041C4FF04D
:10024000000C41F0010140F8041C016844F61F63F2
:1002500041F080010160CDF800C0009A9A4207D8B1
:1002600044F62062009B01330093009B9342F9D334
:10027000C0F800C0C0F828C050F8042C4FF6FF7337
:10028000CFF6F6631A4040F8042C4FF41F02426088
:1002900050F8042C22F4802240F8042C50F8042C4E
:1002A00042F4803240F8042C4FF6FE7250F8041CE1
:1002B000013A4CF10003890301D4002BF6D150F828
:1002C000041C890301D400BFFEE7826947F20001E4
:1002D00042F08052C4F2000182610A684FF6FF7357
:1002E00042F440420A600268CBF2C37302600268C3
:1002F0000260026842F480620260026822F44032C6
:100300000260026842F44032026002681A400260F1
:10031000026842F4C012026050F8042C42F080726D
:1003200040F8042C50F8042C9201FBD50A6842F4E2
:1003300080320A604A68D203FCD50A6842F400326F
:100340000A6000BF4A689203FCD5016821F00301EE
:100350000160016841F00201016000BF0168090706
:10036000FCD501B07047000080B500F029FC80BDCD
:1003700080B500F09DFC80BDFEE70000F0B581B0C7
:1003800040F6BC74C2F2000420464FF4FA61FFF755
:1003900004FF40F20406C2F200063068012840F271
:1003A0000C00C2F200001DDB00210DE0A2F14103B0
:1003B000DBB2062B38BF373A134603F00F02425424
:1003C0003268013191420DDA425CA2F13003DFB2B2
:1003D0000A2FF2D3A2F16103DBB2052BE6D8A2F11A
:1003E0005703EAE7316801EBD17149103160316898
:1003F00001290FDB002100BF00EB4102527810F809
:10040000113002F00F0242EA0312625432680131E5
:100410009142F1DB306801280CDB43F60005002730
:10042000C4F20105E15D284600F016FE3068013790
:100430008742F7DB01B0F0BD2DE9F04140F2040145
:10044000C2F200010A6840F20C0340F6B47E40F6A6
:10045000B87C40F20008012AC2F20003C2F2000E8A
:10046000C2F2000CC2F2000825DB1C180020002597
:1004700012E000BF5F1917F8017C302F02BF322E47
:100480006A1ECCF80020302F04BF332EC8F800506D
:100490000A68013595420FDA665D002D5E55F7D08A
:1004A0002C2EE7D15F1917F8017C302F0CBF681C88
:1004B000CEF80070DEE70020DEF80020CCF8000067
:1004C000303ACEF80020D8F80020101A0130086029
:1004D0000868012822DB002004E000BF0A68013020
:1004E00090421BDA0028F9D01E1816F8022C2C2A8C
:1004F00009D116F8012C302A05D11A5C322A04BF22
:10050000421ECCF8002016F8012C302AE6D11A5CE5
:10051000332A04BF421EC8F80020DFE7DCF80000E1
:100520000A68012A12DB00269F191A1817F8015CC5
:10053000975D302D9F5501BF332F0020CCF8000070
:10054000C8F800600A6801369642EDDBD8F8000072
:10055000DCF80020801A01300860BDE8F08100005E
:1005600041617047016170472DE9F047CF0601F006
:100570000F0C09D5042A05D1C26B4CF0030C1A43A9
:10058000C26301E04CEA020C00F1100E00F1140A03
:1005900000244FF001094FF00F0800270EE000BFC4
:1005A000166008FA04F225EA02020CFA04F52A435E
:1005B00002600137082F04F104040CD009FA07F295
:1005C00012EA0306F5D0056828295246E8D04829E2
:1005D000E7D17246E4E7082400254FF001094FF007
:1005E0000F080FE0176008FA05F226EA02020CFA7B
:1005F00005F6324342600134102C05F1040508BFB2
:10060000BDE8F08709FA04F212EA0307F3D046685E
:1006100028295246E6D04829E5D17246E2E7000093
:1006200041F2000940F20260C4F2010900F098FAB8
:1006300040F2036000F094FA40F2046000F090FA97
:1006400048464FF46041FFF78BFF484610210322D4
:100650004FF46043FFF788FF48464FF46041FFF7CF
:1006600081FF00F0B9FCA9F5806528460221FFF75B
:1006700079FF2846102103220223FFF775FF4FF26E
:10068000E400C0F2FA2000BF013800BFFCD12846C8
:100690000221FFF765FF4CF29030C0F6EB3000BF4F
:1006A000013800BFFCD144F64A3848464FF40051A7
:1006B000C0F24C08FFF754FF48464FF48041FFF763
:1006C0004FFF48464FF40041FFF74AFF40F6B07A2B
:1006D0004EF2C81747F67206C2F2000A0FF2C82B94
:1006E000C0F2F557B2A46325C0F27D169AF8000057
:1006F0000028FBD09AF80000012817D148464FF493
:100700000051FFF72FFF584600F054FC384600BF59
:10071000013800BFFCD1204600F04CFC30468AF87E
:10072000005000BF013800BFFCD1DFE79AF800009D
:10073000022809D194A000F03DFC40468AF8005000
:10074000013800BFFCD1D1E79AF8000003280FD18F
:1007500048464FF48041FFF705FF48464FF40041FB
:10076000FFF7FEFE404600BF013800BFFCD1BDE7E9
:100770009AF80000042809D148464FF40041FFF7D9
:10078000F1FE4046013800BFFCD1AFE79AF8000007
:1007900018282ED140F20C0042F60071C2F200007F
:1007A000C2F200014FF47A62FFF7DEFC40F204056A
:1007B000C2F200052868042876DB0021002004E04E
:1007C0002A680B1D013193426FDA40F20C02C2F22B
:1007D00000020A4493783A2BF2D15278502AEFD192
:1007E00040F20C02C2F20002525C432A08BF081D0C
:1007F000E6E79AF8000007286AD148464FF400411E
:10080000FFF7AEFE43F6A066C2F2000630464FF494
:10081000FA61FFF7C2FC40F6B47040F20805C2F27C
:100820000000C2F2000502682B6841F2EE2130465A
:10083000C0F6000100F084FC304600F0BBFB4046EF
:10084000013800BFFCD143F6A060C2F200004FF4B3
:10085000FA61FFF7A2FC286841F28C760128C2F207
:1008600000060CDB4FF0000816F80810A9F54C4004
:1008700000F0F2FB286808F101088045F4DB112044
:100880008AF8000049F2946044F64A3847F6720646
:10089000C0F29800C0F24C08C0F27D16632500BF7C
:1008A000013800BFFCD121E700202860FFF7C4FD1C
:1008B000FFF764FD04208AF8000048464FF48041A9
:1008C000FFF74EFE40466325013800BFFCD10DE71F
:1008D0009AF80000112843D1404600BF013800BFFC
:1008E000FCD103208AF8000040F20C00C2F20000A4
:1008F0004FF47A61FFF751FC41F28C70C2F20000B4
:100900004FF4FA61FFF749FC40F6BC70C2F20000F8
:100910004FF4FA61FFF741FC42F60070C2F20000AA
:100920004FF47A61FFF739FC41F66070C2F20000C3
:100930004FF47A61FFF731FC43F6A060C2F2000089
:100940004FF4FA61FFF729FC40F20400C2F2000004
:100950000021016040F20800C2F200000160C5E61B
:100960009AF800001B2805D1404600BF013800BF9F
:10097000FCD1BBE69AF8000063287FF4B7AE40468E
:10098000013800BFFCD1B1E641542B4D49504F50C6
:10099000454E3D312C32322C22302E302E302E302E
:1009A000222C302C300D0A00415445310D0A000034
:1009B00041542B4D495043414C4C3D312C224D323A
:1009C0004D504C4E414D52220D0A00004EF60C5C2B
:1009D000CEF2000CDCF8003003F4E063B3F5E06F16
:1009E00001D104232AE0DCF8003003F4E063B3F51E
:1009F000C06F01D1032321E0DCF8003003F4E06391
:100A0000B3F5A06F01D1022318E0DCF8003003F445
:100A1000E063B3F5806F01D101230FE0DCF8003013
:100A200003F4E063B3F5407F01D1002306E040F218
:100A30000053C0F2FA53CCF80030022301FA03FC51
:100A4000C3F104030F21D94011404EF2001241EAD4
:100A50000C01CEF20002090140EA020383F8001300
:100A600000F01F01012303FA01F11C2303EAD00067
:100A70008150704710B541F20402C4F202021168BD
:100A8000C1F38101022906D001290CD14BF6802146
:100A9000C0F28C1135E01168C90309D440F6001C7E
:100AA000C0F23D0C17E041F20021C0F27A0128E0CB
:100AB000916A46F600434900116845F6405CC0F271
:100AC000DC23C0F2C60C5CBF4BF68023C0F28C1353
:100AD000890358BF9C4613681168C3F3834E1023E3
:100AE00003EAD15113688E44202101EA5361714415
:100AF0000B463F2918BF01330F2938BF8B1C03FB5E
:100B00000CF11368D2F800C0146803280FD8C3F39F
:100B100003130FA2D25C41F2E62E21FA02F3C0F6D3
:100B2000000EDFE800F01302060D184610BD00208D
:100B300010BDCCF302201EF8000023FA00F010BD17
:100B4000C4F3C2201EF8000023FA00F1084610BDCD
:100B5000000000000000000001020304060708096D
:100B600041F2000300F01F018009C4F202034FF0BC
:100B7000010CC2580CFA01F11143C150704700003A
:100B800041F2000300F01F018009C4F202034FF09C
:100B9000010CC2580CFA01F122EA0101C150704760
:100BA00041F2000300F01F018009C4F202034FF07C
:100BB000010CC2580CFA01F11143C15070470000FA
:100BC00010B543F60004C4F2010440F20531C0F24E
:100BD0000501204600F096FA002808BF10BD204607
:100BE00000F036FA40F6AC71C2F200010A6841F238
:100BF0008C73C2F2000398540A68C0B20132022812
:100C00000A6010D0032810D1086840F20802C2F22E
:100C1000000210600020086040F6B070C2F20000D0
:100C20000722027001E0012008600868B0F5FA6F41
:100C3000C4BF0020086010BDB0B540F20260FFF7ED
:100C40008FFF40F20E60FFF78BFF43F60004C4F203
:100C50000104A4F540552846182103224FF40073DF
:100C6000FFF782FC2846042103224FF48063FFF73C
:100C70007BFC204600F0F8F920464FF4165100F0B6
:100C8000B1F92046042100F04FFA2046082100F077
:100C900051FA204600F024FA252000210022FFF717
:100CA00095FE204640F2053100F020FAB0BD00006C
:100CB000F0B581B044F20044C4F2000440F20531C2
:100CC000C0F20501204600F01DFA002800F0358131
:100CD000204600F0BDF941F65C74C2F200042168C0
:100CE00041F66075C2F200054A1C0329685422606F
:100CF000C0F21581C0B2A0F13A0240F6B0761F2AC8
:100D0000C2F2000600F28380DFE802F06E818110FB
:100D1000814A8181818181818181818181818181FA
:100D20006181818181818181818181244A1912F8C7
:100D3000013C4C2B09D112F8023C4C2B05D112F886
:100D4000032C412A01D10B2060E03A284CD04E28D8
:100D50003DD05CE04B1913F8017C442F10D113F8FF
:100D6000023C412B0CD1012030700020206041F664
:100D70006070C2F200004FF47A61FFF70EFA46E0AD
:100D8000142A44D8DFE802F03043430B430C4343BA
:100D90004343434343434343434343432300C5E760
:100DA0004A1912F8013C4C2B09D112F8023C4C2B89
:100DB00005D112F8032C412A01D1172026E03A2848
:100DC00012D04E2803D03D283FF4B0AF1FE04A199F
:100DD00012F8013C452B05D112F8022C502A01D102
:100DE0000D2013E03A2812D1481910F8011C50299F
:100DF0000DD110F8021C432909D110F8031C542905
:100E000005D110F8040C522801D10E203070307832
:100E10000B280FD12068284410F8011C0A2909D199
:100E200010F8021C0D2905D110F8030C522801D12D
:100E3000012011E030780B2819D12068284410F8DF
:100E4000011C0A2913D110F8021C0D290FD110F82A
:100E5000030C4B280BD1022030700020206041F69B
:100E60006070C2F200004FF47A61FFF796F93078B3
:100E70000D2805D12068284410F8010C0A2808D054
:100E80003078172812D12068284410F8010C0A285D
:100E90000CD1032030700020206041F66070C2F257
:100EA00000004FF47A61FFF778F922E030780E28DD
:100EB0001FD12268571EE85D33281AD1501910F847
:100EC000020C302815D142F6007041F66071C2F272
:100ED0000000C2F20001FFF747F940F20400C2F23D
:100EE0000000076040F20000C2F200000760182016
:100EF000D0E72068B0F57A6F02DB002020600EE0BA
:100F0000284410F8010C0A2809D10020206041F67D
:100F10006070C2F200004FF47A61FFF73EF920687A
:100F2000B0F57A6F09DB0020206041F66070C2F2F4
:100F300000004FF47A61FFF730F901B0F0BD000016
:100F4000B0B540F20260FFF70BFE40F21170FFF700
:100F500007FE44F20044C4F2000404F54445284668
:100F6000182103220423FFF7FFFA28460421032255
:100F70000823FFF7F9FA204600F076F820464FF4F0
:100F8000E13100F02FF82046042100F0CDF8204692
:100F9000082100F0CFF8204600F0A2F8262000211A
:100FA0000022FFF713FD204640F2053100F09EF8C5
:100FB000B0BD0000B0B5017859B144F20044451EFF
:100FC000C4F20004204600F047F8A9780135002952
:100FD000F8D10020B0BD000080B5FFF72DFEFFF76F
:100FE000AFFF80BDB0B5044644F6FF30C4F2000048
:100FF0000D4684424FF0000013DD44F60041C4F278
:1010000000018C4219D045F20001C4F200018C426B
:1010100013D043F60001C4F201018C4210D1032029
:101020000CE044F20041C4F200018C4205D044F6C9
:101030000001C4F200018C4202D10220FFF71AFD28
:1010400000EB5500B0FBF5F080B2A060B0BD000031
:1010500040686FF35F2070476FF35F21416000BF0E
:1010600001680906FCD5704710B544F6FF31C4F29B
:101070000001884215DD44F60041C4F200018842B7
:101080001ED045F20001C4F2000188421BD043F695
:101090000001C4F20101884218BF10BD40F20E34B5
:1010A00016E044F20041C4F2000188420ED044F63A
:1010B0000001C4F20001884210D140F2124407E05E
:1010C00040F2134404E040F2144401E040F21144C1
:1010D0002046FFF765FD2046FFF752FD10BD0000DA
:1010E000C16841F40051C1607047000001F01F0267
:1010F00089094FF0010C0B580CFA02F21A430A50FE
:1011000070470000C1F3891252F800C08A0D1058D0
:1011100001F01F03C1F30441C8402CFA03F1084059
:1011200000F0010070470000C26822F00402114381
:10113000C1607047C26822F008021143C160704765
:101140000FB4084B10B504A902AA039800F01CF8CC
:10115000044602A9002000F0C1F8204610BC5DF84A
:1011600014FB0000DD12000802E008C8121F08C1CD
:10117000002AFAD170477047002001E001C1121F18
:10118000002AFBD1704700002DE9FF4F89B09B4634
:101190000446002506E025280BD05A460B999047B7
:1011A000641C6D1C20780028F5D10DB02846BDE8E0
:1011B000F08F0027B8460122474900E0074314F8A2
:1011C000013F203B02FA03F00842F7D120782E2895
:1011D00019D114F8010F47F004072A280ED06FF038
:1011E0002F022078A0F1300109290CD808EB8801E2
:1011F00002EB410100EB0108641CF2E70A98641C51
:1012000050F8048B0A9020780028CED0642808D0AB
:10121000692806D075281ED05A460B9990476D1C38
:1012200058E00A994FF00A0901C90A91002802DA28
:1012300040422D2102E0390504D52B218DF82010E4
:10124000012103E0F90704D02021F7E78A4608AE20
:101250000DE00021FAE70A994FF00A0901C90A9145
:10126000F7E74946FEF7A4FF303106F8011D0028D4
:10127000F7D1ADEB060000F12009780701D44FF05B
:101280000108C84502DDA8EB090000E00020804607
:10129000002706E008A85A46C05D0B9990476D1CD0
:1012A0007F1C5745F6DB04E030205A460B999047E7
:1012B0006D1CB8F10001A8F10108F5DC05E016F895
:1012C000010B5A460B9990476D1CB9F10001A9F129
:1012D0000109F4DC641C65E7092801000A68531C55
:1012E0000B601070704700000000010203044154BD
:1012F0002B4D495053454E443D25642C25640D0A21
:10130000000000001413000800000020704A0000D4
:041310007811000848
:0400000508000131BD
:00000001FF
